:020000040000FA
:0400000007EF00F016
:0A0008001A827CED05F0A1EF06F06E
:1008000000494E54303A2020202020202020202053
:10081000200020202053454E4149202031313820EE
:1008200020200000030E936E22EC06F0000E056EF1
:10083000010E046E4CEC06F0010E076E010EBAECD0
:1008400005F0120E076E080E086E86EC06F0010E1B
:10085000076E020EBAEC05F0010E076E080E086E68
:1008600086EC06F0070E076E020EBAEC05F0000EDD
:10087000076E640E066E18C004F019C005F079EC1E
:1008800004F004C00CF005C00DF0000E0F6E0A0E4F
:100890000E6EDBEC04F00C50300FF3EC05F0000EA4
:1008A000076E0A0E066E18C004F019C005F079EC48
:1008B00004F004C00CF005C00DF0000E0F6E0A0E1F
:1008C0000E6EDBEC04F00C50300FF3EC05F018C0AA
:1008D0000CF019C00DF0000E0F6E0A0E0E6EDBEC60
:1008E00004F00C50300FF3EC05F032EF04F007EF9A
:1008F00000F0000E096E07BE82EF04F080EF04F0F6
:1009000088EF04F0066C071ED8B0072A010E096EA6
:1009100005BE8FEF04F08DEF04F095EF04F0046C4A
:10092000051ED8B0052A010E091A000E0B6E000E26
:100930000A6E06500710D8B4A0EF04F0A2EF04F03E
:10094000CAEF04F0010E086EAAEF04F0D890063644
:100950000736082A07AEAFEF04F0B1EF04F0A6EFB8
:1009600004F0D8900A360B360650045C0750055840
:10097000D8A0BDEF04F0BFEF04F0C4EF04F00650C0
:10098000045E0750055A0A80D89007320632082EB6
:10099000B1EF04F00950D8B4D0EF04F0D2EF04F076
:1009A000D6EF04F00A6C0B1ED8B00B2A0AC004F074
:1009B0000BC005F01200000E116E0DBEE4EF04F046
:1009C000E2EF04F0EAEF04F00C6C0D1ED8B00D2A33
:1009D000010E116E0FBEF1EF04F0EFEF04F0F5EF32
:1009E00004F00E6C0F1ED8B00F2A0E500F10D8B4A2
:1009F000FCEF04F0FEEF04F022EF05F0010E106EA4
:100A000006EF05F0D8900E360F36102A0FAE0BEF1A
:100A100005F00DEF05F002EF05F00E500C5C0F50E5
:100A20000D58D8A016EF05F018EF05F01CEF05F0F3
:100A30000E500C5E0F500D5AD8900F320E32102E01
:100A40000DEF05F01150D8B428EF05F02AEF05F0AE
:100A50002EEF05F00C6C0D1ED8B00D2A0CC00CF05A
:100A60000DC00DF01200066E000E056E0550D8B4D4
:100A70003CEF05F03EEF05F049EF05F006C004F04D
:100A8000043AF00E041681500F0B0410816E4DEFE6
:100A900005F081500F0B0610816E81948186100E37
:100AA000E82EFED700D08196052A010E05645BEF83
:100AB00005F05DEF05F036EF05F00604D8B463EFFE
:100AC00005F065EF05F06EEF05F0020E0618D8A4EC
:100AD0006CEF05F06EEF05F077EF05F0030E046E96
:100AE000980EE82EFED7042EFCD77BEF05F0100EF3
:100AF000E82EFED700D012000600F2A282EF05F029
:100B000084EF05F0B2EF05F0F292000E026E000ED7
:100B1000016E69EC06F0270E036EF50EE82EFED787
:100B2000032EFCD700F081B098EF05F09AEF05F0A6
:100B300093EF05F0270E036EF50EE82EFED7032E79
:100B4000FCD700F0184A192A640E18181910D8A4F6
:100B5000ACEF05F0AEEF05F0B2EF05F0000E196E48
:100B6000000E186E000E026E010E016E69EC06F0AA
:100B70001A9211000A6E0706D2EF05F00750800F97
:100B80000B6EEFEF05F00750C00F0B6EEFEF05F0A7
:100B90000750940F0B6EEFEF05F00750D40F0B6E5C
:100BA000EFEF05F00A50086E096A0950000AD8B440
:100BB000DCEF05F0EFEF05F00850010AD8B4BEEF06
:100BC00005F0030AD8B4C3EF05F0010AD8B4C8EFA2
:100BD00005F0070AD8B4CDEF05F0EFEF05F00B50A4
:100BE00033EC05F01200056E000E066E0650D8B408
:100BF000FCEF05F0FEEF05F009EF06F005C004F08C
:100C0000043AF00E041681500F0B0410816E0DEFA4
:100C100006F081500F0B0510816E81848186100EC5
:100C2000E82EFED700D08196062A010E06641BEF3F
:100C300006F01DEF06F0F6EF05F0100EE82EFED7D9
:100C400000D0120020EE12F010EE08F0050EDBCFFF
:100C5000E3FFE806FCE281500F0B816E81948196E0
:100C6000140E076E7A0EE82EFED7072EFCD7000E64
:100C70000E6E080E0E24D96EDA6A000EDA22DF50EC
:100C800033EC05F00E2A050E0E6449EF06F04BEF2B
:100C900006F039EF06F012009380F18CD08E040438
:100CA0000510D8A456EF06F058EF06F05DEF06F0F9
:100CB000F288F28EF29268EF06F004500510D8A484
:100CC00064EF06F066EF06F068EF06F0F298F29E29
:100CD00012009380F18CD08E01040210D8A473EF1F
:100CE00006F075EF06F07AEF06F0F288F28EF292D7
:100CF00085EF06F001500210D8A481EF06F083EFD3
:100D000006F085EF06F0F298F29E120092EF06F0E0
:100D100007C0F6FF08C0F7FF0800F550F3EC05F038
:100D2000074A082A07C0F6FF08C0F7FF0800F55079
:100D30000009D8A49EEF06F0A0EF06F088EF06F0B9
:100D40001200740EF66E0D0EF76E000EF86E00EEC9
:100D500012F010EE06F00900F5CFEEFFE550E1507D
:100D6000FAE1196A186A1A901A92000EF86E0001D8
:0A0D700012EF04F03332280C0601E4
:020000040020DA
:08000000FFFFFFFFFFFFFFFF00
:020000040030CA
:0E000000000C0000FF8181FF0FC00FE00F40D9
:00000001FF
